{
  "address": "0x21e5d7ab4bbdcFc25cb09C8948e6485729246b0a",
  "abi": [
    {
      "inputs": [
        {
          "internalType": "address",
          "name": "_factory",
          "type": "address"
        },
        {
          "internalType": "address",
          "name": "_token",
          "type": "address"
        },
        {
          "internalType": "address",
          "name": "_WETH",
          "type": "address"
        }
      ],
      "stateMutability": "nonpayable",
      "type": "constructor"
    },
    {
      "anonymous": false,
      "inputs": [
        {
          "indexed": false,
          "internalType": "address",
          "name": "pair",
          "type": "address"
        },
        {
          "indexed": false,
          "internalType": "uint256",
          "name": "amountToken",
          "type": "uint256"
        },
        {
          "indexed": false,
          "internalType": "uint256",
          "name": "amountETH",
          "type": "uint256"
        },
        {
          "indexed": false,
          "internalType": "uint256",
          "name": "liquidity",
          "type": "uint256"
        }
      ],
      "name": "AddLiquidity",
      "type": "event"
    },
    {
      "anonymous": false,
      "inputs": [
        {
          "indexed": true,
          "internalType": "address",
          "name": "sender",
          "type": "address"
        },
        {
          "indexed": false,
          "internalType": "uint256",
          "name": "value",
          "type": "uint256"
        }
      ],
      "name": "Receive",
      "type": "event"
    },
    {
      "inputs": [],
      "name": "WETH",
      "outputs": [
        {
          "internalType": "address",
          "name": "",
          "type": "address"
        }
      ],
      "stateMutability": "view",
      "type": "function"
    },
    {
      "inputs": [
        {
          "internalType": "uint256",
          "name": "amountTokenDesired",
          "type": "uint256"
        },
        {
          "internalType": "uint256",
          "name": "amountETHDesired",
          "type": "uint256"
        },
        {
          "internalType": "uint256",
          "name": "amountTokenMin",
          "type": "uint256"
        },
        {
          "internalType": "uint256",
          "name": "amountETHMin",
          "type": "uint256"
        },
        {
          "internalType": "uint256",
          "name": "deadline",
          "type": "uint256"
        }
      ],
      "name": "addLiquidity",
      "outputs": [
        {
          "internalType": "uint256",
          "name": "amountToken",
          "type": "uint256"
        },
        {
          "internalType": "uint256",
          "name": "amountETH",
          "type": "uint256"
        },
        {
          "internalType": "uint256",
          "name": "liquidity",
          "type": "uint256"
        }
      ],
      "stateMutability": "nonpayable",
      "type": "function"
    },
    {
      "inputs": [],
      "name": "factory",
      "outputs": [
        {
          "internalType": "address",
          "name": "",
          "type": "address"
        }
      ],
      "stateMutability": "view",
      "type": "function"
    },
    {
      "inputs": [],
      "name": "owner",
      "outputs": [
        {
          "internalType": "address",
          "name": "",
          "type": "address"
        }
      ],
      "stateMutability": "view",
      "type": "function"
    },
    {
      "inputs": [],
      "name": "token",
      "outputs": [
        {
          "internalType": "address",
          "name": "",
          "type": "address"
        }
      ],
      "stateMutability": "view",
      "type": "function"
    },
    {
      "stateMutability": "payable",
      "type": "receive"
    }
  ],
  "transactionHash": "0x0b7acc1981aa7e53a4e0251a241acf892923af5b08fbcfaa72042216dcf28f30",
  "args": [
    "0xc35DADB65012eC5796536bD9864eD8773aBc74C4",
    "0x4Af698B479D0098229DC715655c667Ceb6cd8433",
    "0xd0A1E359811322d97991E03f863a0C30C2cF029C"
  ],
  "solcInputHash": "04b03e79470cb924f198dad357856aab",
  "bytecode": "0x61010060405234801561001157600080fd5b50604051610f00380380610f008339818101604052606081101561003457600080fd5b5080516020820151604090920151606082811b6001600160601b031990811660805284821b811660a05282821b1660c052339081901b60e0526001600160a01b039283169383169290911690610e1b6100e56000398061016252806101ea52508061028252806102f8528061034b52806103bf528061053d52508061026152806102d7528061032352806105855250806102b6528061056152806105b7528061067052806107235250610e1b6000f3fe60806040526004361061004e5760003560e01c80638da5cb5b14610090578063a360501c146100c1578063ad5c464814610121578063c45a015514610136578063fc0c546a1461014b5761008b565b3661008b5760408051348152905133917fd6717f327e0cb88b4a97a7f67a453e9258252c34937ccbdd86de7cb840e7def3919081900360200190a2005b600080fd5b34801561009c57600080fd5b506100a5610160565b604080516001600160a01b039092168252519081900360200190f35b3480156100cd57600080fd5b50610103600480360360a08110156100e457600080fd5b5080359060208101359060408101359060608101359060800135610184565b60408051938452602084019290925282820152519081900360600190f35b34801561012d57600080fd5b506100a561053b565b34801561014257600080fd5b506100a561055f565b34801561015757600080fd5b506100a5610583565b7f000000000000000000000000000000000000000000000000000000000000000081565b600080600083428110156101df576040805162461bcd60e51b815260206004820152601d60248201527f4d616964436f696e41756374696f6e5661756c743a2045585049524544000000604482015290519081900360640190fd5b336001600160a01b037f0000000000000000000000000000000000000000000000000000000000000000161461025c576040805162461bcd60e51b815260206004820152601f60248201527f4d616964436f696e41756374696f6e5661756c743a20464f5242494444454e00604482015290519081900360640190fd5b6102aa7f00000000000000000000000000000000000000000000000000000000000000007f00000000000000000000000000000000000000000000000000000000000000008b8b8b8b6105a7565b9094509250600061031c7f00000000000000000000000000000000000000000000000000000000000000007f00000000000000000000000000000000000000000000000000000000000000007f0000000000000000000000000000000000000000000000000000000000000000610838565b90506103497f000000000000000000000000000000000000000000000000000000000000000082876108f8565b7f00000000000000000000000000000000000000000000000000000000000000006001600160a01b031663d0e30db0856040518263ffffffff1660e01b81526004016000604051808303818588803b1580156103a457600080fd5b505af11580156103b8573d6000803e3d6000fd5b50505050507f00000000000000000000000000000000000000000000000000000000000000006001600160a01b031663a9059cbb82866040518363ffffffff1660e01b815260040180836001600160a01b0316815260200182815260200192505050602060405180830381600087803b15801561043457600080fd5b505af1158015610448573d6000803e3d6000fd5b505050506040513d602081101561045e57600080fd5b505161046657fe5b604080516335313c2160e11b815230600482015290516001600160a01b03831691636a6278429160248083019260209291908290030181600087803b1580156104ae57600080fd5b505af11580156104c2573d6000803e3d6000fd5b505050506040513d60208110156104d857600080fd5b5051604080516001600160a01b0384168152602081018890528082018790526060810183905290519194507fbeb3885786d637a474cbc287c0a44587231633a077f0bd30354d5a4b18996fce919081900360800190a15050955095509592505050565b7f000000000000000000000000000000000000000000000000000000000000000081565b7f000000000000000000000000000000000000000000000000000000000000000081565b7f000000000000000000000000000000000000000000000000000000000000000081565b60008060006001600160a01b03167f00000000000000000000000000000000000000000000000000000000000000006001600160a01b031663e6a439058a8a6040518363ffffffff1660e01b815260040180836001600160a01b03168152602001826001600160a01b031681526020019250505060206040518083038186803b15801561063357600080fd5b505afa158015610647573d6000803e3d6000fd5b505050506040513d602081101561065d57600080fd5b50516001600160a01b0316141561071b577f00000000000000000000000000000000000000000000000000000000000000006001600160a01b031663c9c6539689896040518363ffffffff1660e01b815260040180836001600160a01b03168152602001826001600160a01b0316815260200192505050602060405180830381600087803b1580156106ee57600080fd5b505af1158015610702573d6000803e3d6000fd5b505050506040513d602081101561071857600080fd5b50505b6000806107497f00000000000000000000000000000000000000000000000000000000000000008b8b610a62565b9150915081600014801561075b575080155b1561076b5787935086925061082b565b6000610778898484610b30565b90508781116107cb57858110156107c05760405162461bcd60e51b815260040180806020018281038252602b815260200180610d1e602b913960400191505060405180910390fd5b889450925082610829565b60006107d8898486610b30565b9050898111156107e457fe5b878110156108235760405162461bcd60e51b815260040180806020018281038252602b815260200180610d49602b913960400191505060405180910390fd5b94508793505b505b5050965096945050505050565b60008060006108478585610bd6565b604080516bffffffffffffffffffffffff19606094851b811660208084019190915293851b81166034830152825160288184030181526048830184528051908501206001600160f81b031960688401529a90941b9093166069840152607d8301989098527fe18a34eb0e04b04f7a0ac29a6e80748dca96319b42c54d679cb821dca90c6303609d808401919091528851808403909101815260bd909201909752805196019590952095945050505050565b604080516001600160a01b038481166024830152604480830185905283518084039091018152606490920183526020820180516001600160e01b031663a9059cbb60e01b178152925182516000946060949389169392918291908083835b602083106109755780518252601f199092019160209182019101610956565b6001836020036101000a0380198251168184511680821785525050505050509050019150506000604051808303816000865af19150503d80600081146109d7576040519150601f19603f3d011682016040523d82523d6000602084013e6109dc565b606091505b5091509150818015610a0a575080511580610a0a5750808060200190516020811015610a0757600080fd5b50515b610a5b576040805162461bcd60e51b815260206004820152601f60248201527f5472616e7366657248656c7065723a205452414e534645525f4641494c454400604482015290519081900360640190fd5b5050505050565b6000806000610a718585610bd6565b509050600080610a82888888610838565b6001600160a01b0316630902f1ac6040518163ffffffff1660e01b815260040160606040518083038186803b158015610aba57600080fd5b505afa158015610ace573d6000803e3d6000fd5b505050506040513d6060811015610ae457600080fd5b5080516020909101516dffffffffffffffffffffffffffff91821693501690506001600160a01b0387811690841614610b1e578082610b21565b81815b90999098509650505050505050565b6000808411610b705760405162461bcd60e51b8152600401808060200182810382526025815260200180610dc16025913960400191505060405180910390fd5b600083118015610b805750600082115b610bbb5760405162461bcd60e51b8152600401808060200182810382526028815260200180610d996028913960400191505060405180910390fd5b82610bc68584610cb4565b81610bcd57fe5b04949350505050565b600080826001600160a01b0316846001600160a01b03161415610c2a5760405162461bcd60e51b8152600401808060200182810382526025815260200180610d746025913960400191505060405180910390fd5b826001600160a01b0316846001600160a01b031610610c4a578284610c4d565b83835b90925090506001600160a01b038216610cad576040805162461bcd60e51b815260206004820152601e60248201527f556e697377617056324c6962726172793a205a45524f5f414444524553530000604482015290519081900360640190fd5b9250929050565b6000811580610ccf57505080820282828281610ccc57fe5b04145b610d17576040805162461bcd60e51b815260206004820152601460248201527364732d6d6174682d6d756c2d6f766572666c6f7760601b604482015290519081900360640190fd5b9291505056fe4d616964436f696e41756374696f6e5661756c743a20494e53554646494349454e545f425f414d4f554e544d616964436f696e41756374696f6e5661756c743a20494e53554646494349454e545f415f414d4f554e54556e697377617056324c6962726172793a204944454e544943414c5f414444524553534553556e697377617056324c6962726172793a20494e53554646494349454e545f4c4951554944495459556e697377617056324c6962726172793a20494e53554646494349454e545f414d4f554e54a2646970667358221220fcd767ac52d2c19fce1c95e61b01771d7ac62ea4900ce19bbdd95f0b3911744d64736f6c634300060c0033",
  "devdoc": {
    "kind": "dev",
    "methods": {},
    "version": 1
  },
  "userdoc": {
    "kind": "user",
    "methods": {},
    "version": 1
  },
  "storageLayout": {
    "storage": [],
    "types": null
  }
}